{
  "contractName": "VotingSystem",
  "abi": [
    {
      "inputs": [],
      "stateMutability": "nonpayable",
      "type": "constructor"
    },
    {
      "anonymous": false,
      "inputs": [
        {
          "indexed": false,
          "internalType": "uint256",
          "name": "id",
          "type": "uint256"
        },
        {
          "indexed": false,
          "internalType": "string",
          "name": "name",
          "type": "string"
        }
      ],
      "name": "ContestantAdded",
      "type": "event"
    },
    {
      "anonymous": false,
      "inputs": [
        {
          "indexed": false,
          "internalType": "uint256",
          "name": "id",
          "type": "uint256"
        },
        {
          "indexed": false,
          "internalType": "uint256",
          "name": "createdTime",
          "type": "uint256"
        }
      ],
      "name": "ElectionCreated",
      "type": "event"
    },
    {
      "anonymous": false,
      "inputs": [
        {
          "indexed": false,
          "internalType": "uint256",
          "name": "id",
          "type": "uint256"
        },
        {
          "indexed": false,
          "internalType": "uint256",
          "name": "endedTime",
          "type": "uint256"
        }
      ],
      "name": "ElectionEnded",
      "type": "event"
    },
    {
      "anonymous": false,
      "inputs": [
        {
          "indexed": false,
          "internalType": "uint256",
          "name": "id",
          "type": "uint256"
        },
        {
          "indexed": false,
          "internalType": "uint256",
          "name": "startedTime",
          "type": "uint256"
        }
      ],
      "name": "ElectionStarted",
      "type": "event"
    },
    {
      "anonymous": false,
      "inputs": [
        {
          "indexed": false,
          "internalType": "bool",
          "name": "isActive",
          "type": "bool"
        }
      ],
      "name": "RegistrationPhaseChanged",
      "type": "event"
    },
    {
      "anonymous": false,
      "inputs": [
        {
          "indexed": false,
          "internalType": "string",
          "name": "voterCnic",
          "type": "string"
        },
        {
          "indexed": false,
          "internalType": "uint256",
          "name": "contestantId",
          "type": "uint256"
        }
      ],
      "name": "VoteCast",
      "type": "event"
    },
    {
      "anonymous": false,
      "inputs": [
        {
          "indexed": false,
          "internalType": "string",
          "name": "cnic",
          "type": "string"
        },
        {
          "indexed": false,
          "internalType": "address",
          "name": "walletAddress",
          "type": "address"
        }
      ],
      "name": "VoterApproved",
      "type": "event"
    },
    {
      "anonymous": false,
      "inputs": [
        {
          "indexed": false,
          "internalType": "string",
          "name": "cnic",
          "type": "string"
        },
        {
          "indexed": false,
          "internalType": "address",
          "name": "walletAddress",
          "type": "address"
        }
      ],
      "name": "VoterRegistrationSubmitted",
      "type": "event"
    },
    {
      "anonymous": false,
      "inputs": [
        {
          "indexed": false,
          "internalType": "uint256",
          "name": "electionId",
          "type": "uint256"
        },
        {
          "indexed": false,
          "internalType": "uint256",
          "name": "winnerId",
          "type": "uint256"
        },
        {
          "indexed": false,
          "internalType": "uint256",
          "name": "voteCount",
          "type": "uint256"
        }
      ],
      "name": "WinnerDeclared",
      "type": "event"
    },
    {
      "inputs": [],
      "name": "admin",
      "outputs": [
        {
          "internalType": "address",
          "name": "",
          "type": "address"
        }
      ],
      "stateMutability": "view",
      "type": "function",
      "constant": true
    },
    {
      "inputs": [],
      "name": "contestantCount",
      "outputs": [
        {
          "internalType": "uint256",
          "name": "",
          "type": "uint256"
        }
      ],
      "stateMutability": "view",
      "type": "function",
      "constant": true
    },
    {
      "inputs": [
        {
          "internalType": "uint256",
          "name": "",
          "type": "uint256"
        }
      ],
      "name": "contestants",
      "outputs": [
        {
          "internalType": "uint256",
          "name": "id",
          "type": "uint256"
        },
        {
          "internalType": "string",
          "name": "name",
          "type": "string"
        },
        {
          "internalType": "uint256",
          "name": "age",
          "type": "uint256"
        },
        {
          "internalType": "string",
          "name": "cnic",
          "type": "string"
        },
        {
          "internalType": "string",
          "name": "qualification",
          "type": "string"
        },
        {
          "internalType": "uint256",
          "name": "voteCount",
          "type": "uint256"
        },
        {
          "internalType": "bool",
          "name": "isRegistered",
          "type": "bool"
        }
      ],
      "stateMutability": "view",
      "type": "function",
      "constant": true
    },
    {
      "inputs": [],
      "name": "currentElectionId",
      "outputs": [
        {
          "internalType": "uint256",
          "name": "",
          "type": "uint256"
        }
      ],
      "stateMutability": "view",
      "type": "function",
      "constant": true
    },
    {
      "inputs": [
        {
          "internalType": "uint256",
          "name": "",
          "type": "uint256"
        }
      ],
      "name": "elections",
      "outputs": [
        {
          "internalType": "uint256",
          "name": "id",
          "type": "uint256"
        },
        {
          "internalType": "enum VotingSystem.ElectionStatus",
          "name": "status",
          "type": "uint8"
        },
        {
          "internalType": "bool",
          "name": "isResultDeclared",
          "type": "bool"
        },
        {
          "internalType": "uint256",
          "name": "winnerId",
          "type": "uint256"
        },
        {
          "internalType": "uint256",
          "name": "createdTime",
          "type": "uint256"
        },
        {
          "internalType": "uint256",
          "name": "startedTime",
          "type": "uint256"
        },
        {
          "internalType": "uint256",
          "name": "endedTime",
          "type": "uint256"
        }
      ],
      "stateMutability": "view",
      "type": "function",
      "constant": true
    },
    {
      "inputs": [
        {
          "internalType": "string",
          "name": "",
          "type": "string"
        }
      ],
      "name": "isPendingVoter",
      "outputs": [
        {
          "internalType": "bool",
          "name": "",
          "type": "bool"
        }
      ],
      "stateMutability": "view",
      "type": "function",
      "constant": true
    },
    {
      "inputs": [],
      "name": "isRegistrationPhaseActive",
      "outputs": [
        {
          "internalType": "bool",
          "name": "",
          "type": "bool"
        }
      ],
      "stateMutability": "view",
      "type": "function",
      "constant": true
    },
    {
      "inputs": [
        {
          "internalType": "uint256",
          "name": "",
          "type": "uint256"
        }
      ],
      "name": "pendingVoters",
      "outputs": [
        {
          "internalType": "string",
          "name": "",
          "type": "string"
        }
      ],
      "stateMutability": "view",
      "type": "function",
      "constant": true
    },
    {
      "inputs": [
        {
          "internalType": "address",
          "name": "",
          "type": "address"
        }
      ],
      "name": "registeredWallets",
      "outputs": [
        {
          "internalType": "bool",
          "name": "",
          "type": "bool"
        }
      ],
      "stateMutability": "view",
      "type": "function",
      "constant": true
    },
    {
      "inputs": [
        {
          "internalType": "string",
          "name": "",
          "type": "string"
        }
      ],
      "name": "voters",
      "outputs": [
        {
          "internalType": "string",
          "name": "cnic",
          "type": "string"
        },
        {
          "internalType": "address",
          "name": "walletAddress",
          "type": "address"
        },
        {
          "internalType": "bool",
          "name": "isRegistered",
          "type": "bool"
        },
        {
          "internalType": "bool",
          "name": "hasVoted",
          "type": "bool"
        },
        {
          "internalType": "bool",
          "name": "isApproved",
          "type": "bool"
        },
        {
          "internalType": "uint256",
          "name": "registrationTime",
          "type": "uint256"
        }
      ],
      "stateMutability": "view",
      "type": "function",
      "constant": true
    },
    {
      "inputs": [],
      "name": "startRegistrationPhase",
      "outputs": [],
      "stateMutability": "nonpayable",
      "type": "function"
    },
    {
      "inputs": [],
      "name": "stopRegistrationPhase",
      "outputs": [],
      "stateMutability": "nonpayable",
      "type": "function"
    },
    {
      "inputs": [
        {
          "internalType": "string",
          "name": "_cnic",
          "type": "string"
        }
      ],
      "name": "submitVoterRegistration",
      "outputs": [],
      "stateMutability": "nonpayable",
      "type": "function"
    },
    {
      "inputs": [
        {
          "internalType": "string",
          "name": "_cnic",
          "type": "string"
        }
      ],
      "name": "approveVoter",
      "outputs": [],
      "stateMutability": "nonpayable",
      "type": "function"
    },
    {
      "inputs": [
        {
          "internalType": "string",
          "name": "_cnic",
          "type": "string"
        }
      ],
      "name": "rejectVoter",
      "outputs": [],
      "stateMutability": "nonpayable",
      "type": "function"
    },
    {
      "inputs": [],
      "name": "getPendingVotersCount",
      "outputs": [
        {
          "internalType": "uint256",
          "name": "",
          "type": "uint256"
        }
      ],
      "stateMutability": "view",
      "type": "function",
      "constant": true
    },
    {
      "inputs": [
        {
          "internalType": "uint256",
          "name": "index",
          "type": "uint256"
        }
      ],
      "name": "getPendingVoterAtIndex",
      "outputs": [
        {
          "internalType": "string",
          "name": "",
          "type": "string"
        }
      ],
      "stateMutability": "view",
      "type": "function",
      "constant": true
    },
    {
      "inputs": [
        {
          "internalType": "string",
          "name": "_cnic",
          "type": "string"
        }
      ],
      "name": "getVoterStatus",
      "outputs": [
        {
          "internalType": "bool",
          "name": "isRegistered",
          "type": "bool"
        },
        {
          "internalType": "bool",
          "name": "isPending",
          "type": "bool"
        },
        {
          "internalType": "bool",
          "name": "isApproved",
          "type": "bool"
        },
        {
          "internalType": "uint256",
          "name": "registrationTime",
          "type": "uint256"
        }
      ],
      "stateMutability": "view",
      "type": "function",
      "constant": true
    },
    {
      "inputs": [
        {
          "internalType": "string",
          "name": "_name",
          "type": "string"
        },
        {
          "internalType": "uint256",
          "name": "_age",
          "type": "uint256"
        },
        {
          "internalType": "string",
          "name": "_cnic",
          "type": "string"
        },
        {
          "internalType": "string",
          "name": "_qualification",
          "type": "string"
        }
      ],
      "name": "addContestant",
      "outputs": [],
      "stateMutability": "nonpayable",
      "type": "function"
    },
    {
      "inputs": [],
      "name": "clearContestants",
      "outputs": [],
      "stateMutability": "nonpayable",
      "type": "function"
    },
    {
      "inputs": [
        {
          "internalType": "uint256[]",
          "name": "_contestantIds",
          "type": "uint256[]"
        }
      ],
      "name": "createElection",
      "outputs": [],
      "stateMutability": "nonpayable",
      "type": "function"
    },
    {
      "inputs": [
        {
          "internalType": "uint256",
          "name": "_electionId",
          "type": "uint256"
        }
      ],
      "name": "startElection",
      "outputs": [],
      "stateMutability": "nonpayable",
      "type": "function"
    },
    {
      "inputs": [
        {
          "internalType": "uint256",
          "name": "_electionId",
          "type": "uint256"
        }
      ],
      "name": "endElection",
      "outputs": [],
      "stateMutability": "nonpayable",
      "type": "function"
    },
    {
      "inputs": [
        {
          "internalType": "string",
          "name": "_voterCnic",
          "type": "string"
        },
        {
          "internalType": "uint256",
          "name": "_contestantId",
          "type": "uint256"
        }
      ],
      "name": "castVote",
      "outputs": [],
      "stateMutability": "nonpayable",
      "type": "function"
    },
    {
      "inputs": [
        {
          "internalType": "uint256",
          "name": "_contestantId",
          "type": "uint256"
        }
      ],
      "name": "getContestantDetails",
      "outputs": [
        {
          "internalType": "string",
          "name": "name",
          "type": "string"
        },
        {
          "internalType": "uint256",
          "name": "age",
          "type": "uint256"
        },
        {
          "internalType": "string",
          "name": "cnic",
          "type": "string"
        },
        {
          "internalType": "string",
          "name": "qualification",
          "type": "string"
        },
        {
          "internalType": "uint256",
          "name": "voteCount",
          "type": "uint256"
        }
      ],
      "stateMutability": "view",
      "type": "function",
      "constant": true
    },
    {
      "inputs": [
        {
          "internalType": "uint256",
          "name": "_electionId",
          "type": "uint256"
        }
      ],
      "name": "getElectionStatus",
      "outputs": [
        {
          "internalType": "enum VotingSystem.ElectionStatus",
          "name": "status",
          "type": "uint8"
        },
        {
          "internalType": "uint256",
          "name": "createdTime",
          "type": "uint256"
        },
        {
          "internalType": "uint256",
          "name": "startedTime",
          "type": "uint256"
        },
        {
          "internalType": "uint256",
          "name": "endedTime",
          "type": "uint256"
        }
      ],
      "stateMutability": "view",
      "type": "function",
      "constant": true
    },
    {
      "inputs": [
        {
          "internalType": "uint256",
          "name": "_electionId",
          "type": "uint256"
        },
        {
          "internalType": "uint256",
          "name": "_contestantId",
          "type": "uint256"
        }
      ],
      "name": "isContestantInElection",
      "outputs": [
        {
          "internalType": "bool",
          "name": "",
          "type": "bool"
        }
      ],
      "stateMutability": "view",
      "type": "function",
      "constant": true
    },
    {
      "inputs": [
        {
          "internalType": "uint256",
          "name": "_electionId",
          "type": "uint256"
        }
      ],
      "name": "declareWinner",
      "outputs": [],
      "stateMutability": "nonpayable",
      "type": "function"
    },
    {
      "inputs": [
        {
          "internalType": "uint256",
          "name": "_electionId",
          "type": "uint256"
        }
      ],
      "name": "getElectionResult",
      "outputs": [
        {
          "internalType": "bool",
          "name": "isResultDeclared",
          "type": "bool"
        },
        {
          "internalType": "uint256",
          "name": "winnerId",
          "type": "uint256"
        },
        {
          "internalType": "string",
          "name": "winnerName",
          "type": "string"
        },
        {
          "internalType": "uint256",
          "name": "winnerVotes",
          "type": "uint256"
        },
        {
          "internalType": "enum VotingSystem.ElectionStatus",
          "name": "status",
          "type": "uint8"
        },
        {
          "internalType": "uint256",
          "name": "createdTime",
          "type": "uint256"
        },
        {
          "internalType": "uint256",
          "name": "startedTime",
          "type": "uint256"
        },
        {
          "internalType": "uint256",
          "name": "endedTime",
          "type": "uint256"
        }
      ],
      "stateMutability": "view",
      "type": "function",
      "constant": true
    }
  ],
  "bytecode": "0x608060405234801561001057600080fd5b50336000806101000a81548173ffffffffffffffffffffffffffffffffffffffff021916908373ffffffffffffffffffffffffffffffffffffffff160217905550600060018190555060006002819055506143e2806100706000396000f3fe608060405234801561001057600080fd5b50600436106101ce5760003560e01c806372f26e0311610104578063b479d3a9116100a2578063e1bcf07b11610071578063e1bcf07b1461055d578063e3b9e2fa1461058d578063f38fd423146105a9578063f851a440146105c7576101ce565b8063b479d3a9146104ab578063cd8fccf9146104db578063dfd50f521461050b578063e01159c914610541576101ce565b8063945493b0116100de578063945493b01461043457806398ecf2a01461043e5780639c98bcbb1461045c578063a2a8d2ae14610478576101ce565b806372f26e03146103f25780637709d982146103fc5780637f281dc414610418576101ce565b806336fdcd8b116101715780635e6fef011161014b5780635e6fef0114610352578063613711c21461038857806363ea5259146103a65780636d32dc4b146103d6576101ce565b806336fdcd8b146102cd5780633b1c88a2146102e957806353fa2e641461031d576101ce565b806323fc4b36116101ad57806323fc4b361461021757806324785b9e1461024e57806324a9267b146102815780632be7f441146102b1576101ce565b8062c2943c146101d35780630a4983ba146101ef578063214d6c1e146101f9575b600080fd5b6101ed60048036038101906101e89190612bbc565b6105e5565b005b6101f761088a565b005b610201610a52565b60405161020e9190612c04565b60405180910390f35b610231600480360381019061022c9190612bbc565b610a65565b604051610245989796959493929190612d35565b60405180910390f35b61026860048036038101906102639190612bbc565b610be6565b6040516102789493929190612dba565b60405180910390f35b61029b60048036038101906102969190612bbc565b610c34565b6040516102a89190612dff565b60405180910390f35b6102cb60048036038101906102c69190612f56565b610ce0565b005b6102e760048036038101906102e29190612f56565b6110b7565b005b61030360048036038101906102fe9190612bbc565b61138f565b604051610314959493929190612f9f565b60405180910390f35b61033760048036038101906103329190612f56565b6115cd565b60405161034996959493929190613048565b60405180910390f35b61036c60048036038101906103679190612bbc565b6116ee565b60405161037f97969594939291906130b0565b60405180910390f35b61039061174a565b60405161039d919061311f565b60405180910390f35b6103c060048036038101906103bb9190612f56565b611750565b6040516103cd9190612c04565b60405180910390f35b6103f060048036038101906103eb9190612bbc565b611786565b005b6103fa611967565b005b61041660048036038101906104119190612f56565b611a4a565b005b610432600480360381019061042d9190613202565b611c19565b005b61043c611e82565b005b610446611f65565b604051610453919061311f565b60405180910390f35b61047660048036038101906104719190612bbc565b611f6b565b005b610492600480360381019061048d9190612f56565b61214c565b6040516104a2949392919061324b565b60405180910390f35b6104c560048036038101906104c091906132bc565b61230d565b6040516104d29190612c04565b60405180910390f35b6104f560048036038101906104f091906132e9565b61232d565b6040516105029190612c04565b60405180910390f35b61052560048036038101906105209190612bbc565b61236c565b6040516105389796959493929190613329565b60405180910390f35b61055b600480360381019061055691906133ad565b612553565b005b61057760048036038101906105729190612bbc565b61270b565b6040516105849190612dff565b60405180910390f35b6105a760048036038101906105a29190613468565b612802565b005b6105b1612ae4565b6040516105be919061311f565b60405180910390f35b6105cf612af1565b6040516105dc91906134c4565b60405180910390f35b60008054906101000a900473ffffffffffffffffffffffffffffffffffffffff1673ffffffffffffffffffffffffffffffffffffffff163373ffffffffffffffffffffffffffffffffffffffff1614610673576040517f08c379a000000000000000000000000000000000000000000000000000000000815260040161066a90613551565b60405180910390fd5b600060066000838152602001908152602001600020905060028081111561069d5761069c612cbe565b5b8160010160009054906101000a900460ff1660028111156106c1576106c0612cbe565b5b14610701576040517f08c379a00000000000000000000000000000000000000000000000000000000081526004016106f8906135bd565b60405180910390fd5b8060010160019054906101000a900460ff1615610753576040517f08c379a000000000000000000000000000000000000000000000000000000000815260040161074a90613629565b60405180910390fd5b6000806000600190505b60025481116107df5783600601600082815260200190815260200160002060009054906101000a900460ff1680156107aa5750826004600083815260200190815260200160002060050154115b156107cc57600460008281526020019081526020016000206005015492508091505b80806107d790613678565b91505061075d565b5060008111610823576040517f08c379a000000000000000000000000000000000000000000000000000000000815260040161081a9061370c565b60405180910390fd5b60018360010160016101000a81548160ff0219169083151502179055508083600201819055507f5f232421a69b09b9a293f4879042ee2db94a28bbfd7429b78bb575bce6bae97284828460405161087c9392919061372c565b60405180910390a150505050565b60008054906101000a900473ffffffffffffffffffffffffffffffffffffffff1673ffffffffffffffffffffffffffffffffffffffff163373ffffffffffffffffffffffffffffffffffffffff1614610918576040517f08c379a000000000000000000000000000000000000000000000000000000000815260040161090f90613551565b60405180910390fd5b6000600154148061097357506001600281111561093857610937612cbe565b5b60066000600154815260200190815260200160002060010160009054906101000a900460ff1660028111156109705761096f612cbe565b5b14155b6109b2576040517f08c379a00000000000000000000000000000000000000000000000000000000081526004016109a9906137d5565b60405180910390fd5b6000600190505b6002548111610a4757600460008281526020019081526020016000206000808201600090556001820160006109ee9190612b15565b6002820160009055600382016000610a069190612b15565b600482016000610a169190612b15565b60058201600090556006820160006101000a81549060ff021916905550508080610a3f90613678565b9150506109b9565b506000600281905550565b600360009054906101000a900460ff1681565b6000806060600080600080600080600660008b815260200190815260200160002090508060010160019054906101000a900460ff1615610b8e57600060046000836002015481526020019081526020016000209050600182600201548260010183600501548560010160009054906101000a900460ff16866003015487600401548860050154858054610af790613824565b80601f0160208091040260200160405190810160405280929190818152602001828054610b2390613824565b8015610b705780601f10610b4557610100808354040283529160200191610b70565b820191906000526020600020905b815481529060010190602001808311610b5357829003601f168201915b50505050509550995099509950995099509950995099505050610bdb565b60008060008360010160009054906101000a900460ff1684600301548560040154866005015460405180602001604052806000815250949392919098509850985098509850985098509850505b919395975091939597565b60008060008060006006600087815260200190815260200160002090508060010160009054906101000a900460ff168160030154826004015483600501549450945094509450509193509193565b60088181548110610c4457600080fd5b906000526020600020016000915090508054610c5f90613824565b80601f0160208091040260200160405190810160405280929190818152602001828054610c8b90613824565b8015610cd85780601f10610cad57610100808354040283529160200191610cd8565b820191906000526020600020905b815481529060010190602001808311610cbb57829003601f168201915b505050505081565b600360009054906101000a900460ff16610d2f576040517f08c379a0000000000000000000000000000000000000000000000000000000008152600401610d26906138a1565b60405180910390fd5b6000815111610d73576040517f08c379a0000000000000000000000000000000000000000000000000000000008152600401610d6a9061390d565b60405180910390fd5b600581604051610d839190613969565b908152602001604051809103902060010160149054906101000a900460ff1615610de2576040517f08c379a0000000000000000000000000000000000000000000000000000000008152600401610dd9906139cc565b60405180910390fd5b600981604051610df29190613969565b908152602001604051809103902060009054906101000a900460ff1615610e4e576040517f08c379a0000000000000000000000000000000000000000000000000000000008152600401610e4590613a38565b60405180910390fd5b600760003373ffffffffffffffffffffffffffffffffffffffff1673ffffffffffffffffffffffffffffffffffffffff16815260200190815260200160002060009054906101000a900460ff1615610edb576040517f08c379a0000000000000000000000000000000000000000000000000000000008152600401610ed290613aca565b60405180910390fd5b600881908060018154018082558091505060019003906000526020600020016000909190919091509081610f0f9190613c96565b506001600982604051610f229190613969565b908152602001604051809103902060006101000a81548160ff0219169083151502179055506040518060c001604052808281526020013373ffffffffffffffffffffffffffffffffffffffff16815260200160001515815260200160001515815260200160001515815260200142815250600582604051610fa39190613969565b90815260200160405180910390206000820151816000019081610fc69190613c96565b5060208201518160010160006101000a81548173ffffffffffffffffffffffffffffffffffffffff021916908373ffffffffffffffffffffffffffffffffffffffff16021790555060408201518160010160146101000a81548160ff02191690831515021790555060608201518160010160156101000a81548160ff02191690831515021790555060808201518160010160166101000a81548160ff02191690831515021790555060a082015181600201559050507f82de9194ad3b255c1073c63ddf632a2dacb15475fd2487d6e12f8aca6b617b1081336040516110ac929190613d68565b60405180910390a150565b60008054906101000a900473ffffffffffffffffffffffffffffffffffffffff1673ffffffffffffffffffffffffffffffffffffffff163373ffffffffffffffffffffffffffffffffffffffff1614611145576040517f08c379a000000000000000000000000000000000000000000000000000000000815260040161113c90613551565b60405180910390fd5b6009816040516111559190613969565b908152602001604051809103902060009054906101000a900460ff166111b0576040517f08c379a00000000000000000000000000000000000000000000000000000000081526004016111a790613de4565b60405180910390fd5b6005816040516111c09190613969565b908152602001604051809103902060010160149054906101000a900460ff161561121f576040517f08c379a0000000000000000000000000000000000000000000000000000000008152600401611216906139cc565b60405180910390fd5b60006005826040516112319190613969565b9081526020016040518091039020905060018160010160146101000a81548160ff02191690831515021790555060018160010160166101000a81548160ff0219169083151502179055506001600760008360010160009054906101000a900473ffffffffffffffffffffffffffffffffffffffff1673ffffffffffffffffffffffffffffffffffffffff1673ffffffffffffffffffffffffffffffffffffffff16815260200190815260200160002060006101000a81548160ff02191690831515021790555060006009836040516113099190613969565b908152602001604051809103902060006101000a81548160ff0219169083151502179055507f7ac35af280bf51a04b6e59a513b8a0411c8e9f173da2e0c20785396e4147008c828260010160009054906101000a900473ffffffffffffffffffffffffffffffffffffffff16604051611383929190613d68565b60405180910390a15050565b606060006060806000806004600088815260200190815260200160002090508060060160009054906101000a900460ff166113ff576040517f08c379a00000000000000000000000000000000000000000000000000000000081526004016113f690613e50565b60405180910390fd5b8060010181600201548260030183600401846005015484805461142190613824565b80601f016020809104026020016040519081016040528092919081815260200182805461144d90613824565b801561149a5780601f1061146f5761010080835404028352916020019161149a565b820191906000526020600020905b81548152906001019060200180831161147d57829003601f168201915b505050505094508280546114ad90613824565b80601f01602080910402602001604051908101604052809291908181526020018280546114d990613824565b80156115265780601f106114fb57610100808354040283529160200191611526565b820191906000526020600020905b81548152906001019060200180831161150957829003601f168201915b5050505050925081805461153990613824565b80601f016020809104026020016040519081016040528092919081815260200182805461156590613824565b80156115b25780601f10611587576101008083540402835291602001916115b2565b820191906000526020600020905b81548152906001019060200180831161159557829003601f168201915b50505050509150955095509550955095505091939590929450565b60058180516020810182018051848252602083016020850120818352809550505050505060009150905080600001805461160690613824565b80601f016020809104026020016040519081016040528092919081815260200182805461163290613824565b801561167f5780601f106116545761010080835404028352916020019161167f565b820191906000526020600020905b81548152906001019060200180831161166257829003601f168201915b5050505050908060010160009054906101000a900473ffffffffffffffffffffffffffffffffffffffff16908060010160149054906101000a900460ff16908060010160159054906101000a900460ff16908060010160169054906101000a900460ff16908060020154905086565b60066020528060005260406000206000915090508060000154908060010160009054906101000a900460ff16908060010160019054906101000a900460ff16908060020154908060030154908060040154908060050154905087565b60025481565b6009818051602081018201805184825260208301602085012081835280955050505050506000915054906101000a900460ff1681565b60008054906101000a900473ffffffffffffffffffffffffffffffffffffffff1673ffffffffffffffffffffffffffffffffffffffff163373ffffffffffffffffffffffffffffffffffffffff1614611814576040517f08c379a000000000000000000000000000000000000000000000000000000000815260040161180b90613551565b60405180910390fd5b60008111801561182657506001548111155b611865576040517f08c379a000000000000000000000000000000000000000000000000000000000815260040161185c90613ebc565b60405180910390fd5b6000600660008381526020019081526020016000209050600060028111156118905761188f612cbe565b5b8160010160009054906101000a900460ff1660028111156118b4576118b3612cbe565b5b146118f4576040517f08c379a00000000000000000000000000000000000000000000000000000000081526004016118eb90613f28565b60405180910390fd5b60018160010160006101000a81548160ff0219169083600281111561191c5761191b612cbe565b5b02179055504281600401819055507fff6a30dd22f5e8b783044c7d895a6e8592b55c56f139978d44dc39daf596731f824260405161195b929190613f48565b60405180910390a15050565b60008054906101000a900473ffffffffffffffffffffffffffffffffffffffff1673ffffffffffffffffffffffffffffffffffffffff163373ffffffffffffffffffffffffffffffffffffffff16146119f5576040517f08c379a00000000000000000000000000000000000000000000000000000000081526004016119ec90613551565b60405180910390fd5b6000600360006101000a81548160ff0219169083151502179055507fbf9814f2b8f316000c34495ec66cab2dd0e36ca69bdca77a5828157c96e22fab6000604051611a409190612c04565b60405180910390a1565b60008054906101000a900473ffffffffffffffffffffffffffffffffffffffff1673ffffffffffffffffffffffffffffffffffffffff163373ffffffffffffffffffffffffffffffffffffffff1614611ad8576040517f08c379a0000000000000000000000000000000000000000000000000000000008152600401611acf90613551565b60405180910390fd5b600981604051611ae89190613969565b908152602001604051809103902060009054906101000a900460ff16611b43576040517f08c379a0000000000000000000000000000000000000000000000000000000008152600401611b3a90613de4565b60405180910390fd5b600581604051611b539190613969565b908152602001604051809103902060008082016000611b729190612b15565b6001820160006101000a81549073ffffffffffffffffffffffffffffffffffffffff02191690556001820160146101000a81549060ff02191690556001820160156101000a81549060ff02191690556001820160166101000a81549060ff0219169055600282016000905550506000600982604051611bf19190613969565b908152602001604051809103902060006101000a81548160ff02191690831515021790555050565b60008054906101000a900473ffffffffffffffffffffffffffffffffffffffff1673ffffffffffffffffffffffffffffffffffffffff163373ffffffffffffffffffffffffffffffffffffffff1614611ca7576040517f08c379a0000000000000000000000000000000000000000000000000000000008152600401611c9e90613551565b60405180910390fd5b600281511015611cec576040517f08c379a0000000000000000000000000000000000000000000000000000000008152600401611ce390613fe3565b60405180910390fd5b60016000815480929190611cff90613678565b919050555060006006600060015481526020019081526020016000209050600154816000018190555060008160010160006101000a81548160ff02191690836002811115611d5057611d4f612cbe565b5b021790555042816003018190555060005b8251811015611e425760046000848381518110611d8157611d80614003565b5b6020026020010151815260200190815260200160002060060160009054906101000a900460ff16611de7576040517f08c379a0000000000000000000000000000000000000000000000000000000008152600401611dde9061407e565b60405180910390fd5b6001826006016000858481518110611e0257611e01614003565b5b6020026020010151815260200190815260200160002060006101000a81548160ff0219169083151502179055508080611e3a90613678565b915050611d61565b507f9bd8efb2f619c1191776b58dd410ef81e29be036d21bb19c4e2e0261d2d5668160015442604051611e76929190613f48565b60405180910390a15050565b60008054906101000a900473ffffffffffffffffffffffffffffffffffffffff1673ffffffffffffffffffffffffffffffffffffffff163373ffffffffffffffffffffffffffffffffffffffff1614611f10576040517f08c379a0000000000000000000000000000000000000000000000000000000008152600401611f0790613551565b60405180910390fd5b6001600360006101000a81548160ff0219169083151502179055507fbf9814f2b8f316000c34495ec66cab2dd0e36ca69bdca77a5828157c96e22fab6001604051611f5b9190612c04565b60405180910390a1565b60015481565b60008054906101000a900473ffffffffffffffffffffffffffffffffffffffff1673ffffffffffffffffffffffffffffffffffffffff163373ffffffffffffffffffffffffffffffffffffffff1614611ff9576040517f08c379a0000000000000000000000000000000000000000000000000000000008152600401611ff090613551565b60405180910390fd5b60008111801561200b57506001548111155b61204a576040517f08c379a000000000000000000000000000000000000000000000000000000000815260040161204190613ebc565b60405180910390fd5b60006006600083815260200190815260200160002090506001600281111561207557612074612cbe565b5b8160010160009054906101000a900460ff16600281111561209957612098612cbe565b5b146120d9576040517f08c379a00000000000000000000000000000000000000000000000000000000081526004016120d0906140ea565b60405180910390fd5b60028160010160006101000a81548160ff0219169083600281111561210157612100612cbe565b5b02179055504281600501819055507f32e2c12037f9600b91a766ce53eab6909f3bdb865851cd9a8c7fafbdf249a9ce8242604051612140929190613f48565b60405180910390a15050565b60008060008060006005866040516121649190613969565b90815260200160405180910390206040518060c001604052908160008201805461218d90613824565b80601f01602080910402602001604051908101604052809291908181526020018280546121b990613824565b80156122065780601f106121db57610100808354040283529160200191612206565b820191906000526020600020905b8154815290600101906020018083116121e957829003601f168201915b505050505081526020016001820160009054906101000a900473ffffffffffffffffffffffffffffffffffffffff1673ffffffffffffffffffffffffffffffffffffffff1673ffffffffffffffffffffffffffffffffffffffff1681526020016001820160149054906101000a900460ff161515151581526020016001820160159054906101000a900460ff161515151581526020016001820160169054906101000a900460ff16151515158152602001600282015481525050905080604001516009876040516122d79190613969565b908152602001604051809103902060009054906101000a900460ff1682608001518360a001519450945094509450509193509193565b60076020528060005260406000206000915054906101000a900460ff1681565b600060066000848152602001908152602001600020600601600083815260200190815260200160002060009054906101000a900460ff16905092915050565b600460205280600052604060002060009150905080600001549080600101805461239590613824565b80601f01602080910402602001604051908101604052809291908181526020018280546123c190613824565b801561240e5780601f106123e35761010080835404028352916020019161240e565b820191906000526020600020905b8154815290600101906020018083116123f157829003601f168201915b50505050509080600201549080600301805461242990613824565b80601f016020809104026020016040519081016040528092919081815260200182805461245590613824565b80156124a25780601f10612477576101008083540402835291602001916124a2565b820191906000526020600020905b81548152906001019060200180831161248557829003601f168201915b5050505050908060040180546124b790613824565b80601f01602080910402602001604051908101604052809291908181526020018280546124e390613824565b80156125305780601f1061250557610100808354040283529160200191612530565b820191906000526020600020905b81548152906001019060200180831161251357829003601f168201915b5050505050908060050154908060060160009054906101000a900460ff16905087565b60008054906101000a900473ffffffffffffffffffffffffffffffffffffffff1673ffffffffffffffffffffffffffffffffffffffff163373ffffffffffffffffffffffffffffffffffffffff16146125e1576040517f08c379a00000000000000000000000000000000000000000000000000000000081526004016125d890613551565b60405180910390fd5b600260008154809291906125f490613678565b91905055506040518060e00160405280600254815260200185815260200184815260200183815260200182815260200160008152602001600115158152506004600060025481526020019081526020016000206000820151816000015560208201518160010190816126669190613c96565b506040820151816002015560608201518160030190816126869190613c96565b50608082015181600401908161269c9190613c96565b5060a0820151816005015560c08201518160060160006101000a81548160ff0219169083151502179055509050507f56f6c29d2eb99f40e2a206309dc37f2cff01a5755a4683e3c2b0ce22e5e3aa17600254856040516126fd92919061410a565b60405180910390a150505050565b60606008805490508210612754576040517f08c379a000000000000000000000000000000000000000000000000000000000815260040161274b90614186565b60405180910390fd5b6008828154811061276857612767614003565b5b90600052602060002001805461277d90613824565b80601f01602080910402602001604051908101604052809291908181526020018280546127a990613824565b80156127f65780601f106127cb576101008083540402835291602001916127f6565b820191906000526020600020905b8154815290600101906020018083116127d957829003601f168201915b50505050509050919050565b6001546001600281111561281957612818612cbe565b5b6006600083815260200190815260200160002060010160009054906101000a900460ff16600281111561284f5761284e612cbe565b5b1461288f576040517f08c379a0000000000000000000000000000000000000000000000000000000008152600401612886906140ea565b60405180910390fd5b60006005846040516128a19190613969565b908152602001604051809103902090508060010160149054906101000a900460ff16612902576040517f08c379a00000000000000000000000000000000000000000000000000000000081526004016128f9906141f2565b60405180910390fd5b3373ffffffffffffffffffffffffffffffffffffffff168160010160009054906101000a900473ffffffffffffffffffffffffffffffffffffffff1673ffffffffffffffffffffffffffffffffffffffff1614612994576040517f08c379a000000000000000000000000000000000000000000000000000000000815260040161298b9061425e565b60405180910390fd5b8060010160159054906101000a900460ff16156129e6576040517f08c379a00000000000000000000000000000000000000000000000000000000081526004016129dd906142ca565b60405180910390fd5b600660006001548152602001908152602001600020600601600084815260200190815260200160002060009054906101000a900460ff16612a5c576040517f08c379a0000000000000000000000000000000000000000000000000000000008152600401612a539061435c565b60405180910390fd5b60018160010160156101000a81548160ff021916908315150217905550600460008481526020019081526020016000206005016000815480929190612aa090613678565b91905055507f777e12406713e556f995ae7467576ea751d01f243ff84668ef43b36634f3fa888484604051612ad692919061437c565b60405180910390a150505050565b6000600880549050905090565b60008054906101000a900473ffffffffffffffffffffffffffffffffffffffff1681565b508054612b2190613824565b6000825580601f10612b335750612b52565b601f016020900490600052602060002090810190612b519190612b55565b5b50565b5b80821115612b6e576000816000905550600101612b56565b5090565b6000604051905090565b600080fd5b600080fd5b6000819050919050565b612b9981612b86565b8114612ba457600080fd5b50565b600081359050612bb681612b90565b92915050565b600060208284031215612bd257612bd1612b7c565b5b6000612be084828501612ba7565b91505092915050565b60008115159050919050565b612bfe81612be9565b82525050565b6000602082019050612c196000830184612bf5565b92915050565b612c2881612b86565b82525050565b600081519050919050565b600082825260208201905092915050565b60005b83811015612c68578082015181840152602081019050612c4d565b60008484015250505050565b6000601f19601f8301169050919050565b6000612c9082612c2e565b612c9a8185612c39565b9350612caa818560208601612c4a565b612cb381612c74565b840191505092915050565b7f4e487b7100000000000000000000000000000000000000000000000000000000600052602160045260246000fd5b60038110612cfe57612cfd612cbe565b5b50565b6000819050612d0f82612ced565b919050565b6000612d1f82612d01565b9050919050565b612d2f81612d14565b82525050565b600061010082019050612d4b600083018b612bf5565b612d58602083018a612c1f565b8181036040830152612d6a8189612c85565b9050612d796060830188612c1f565b612d866080830187612d26565b612d9360a0830186612c1f565b612da060c0830185612c1f565b612dad60e0830184612c1f565b9998505050505050505050565b6000608082019050612dcf6000830187612d26565b612ddc6020830186612c1f565b612de96040830185612c1f565b612df66060830184612c1f565b95945050505050565b60006020820190508181036000830152612e198184612c85565b905092915050565b600080fd5b600080fd5b7f4e487b7100000000000000000000000000000000000000000000000000000000600052604160045260246000fd5b612e6382612c74565b810181811067ffffffffffffffff82111715612e8257612e81612e2b565b5b80604052505050565b6000612e95612b72565b9050612ea18282612e5a565b919050565b600067ffffffffffffffff821115612ec157612ec0612e2b565b5b612eca82612c74565b9050602081019050919050565b82818337600083830152505050565b6000612ef9612ef484612ea6565b612e8b565b905082815260208101848484011115612f1557612f14612e26565b5b612f20848285612ed7565b509392505050565b600082601f830112612f3d57612f3c612e21565b5b8135612f4d848260208601612ee6565b91505092915050565b600060208284031215612f6c57612f6b612b7c565b5b600082013567ffffffffffffffff811115612f8a57612f89612b81565b5b612f9684828501612f28565b91505092915050565b600060a0820190508181036000830152612fb98188612c85565b9050612fc86020830187612c1f565b8181036040830152612fda8186612c85565b90508181036060830152612fee8185612c85565b9050612ffd6080830184612c1f565b9695505050505050565b600073ffffffffffffffffffffffffffffffffffffffff82169050919050565b600061303282613007565b9050919050565b61304281613027565b82525050565b600060c08201905081810360008301526130628189612c85565b90506130716020830188613039565b61307e6040830187612bf5565b61308b6060830186612bf5565b6130986080830185612bf5565b6130a560a0830184612c1f565b979650505050505050565b600060e0820190506130c5600083018a612c1f565b6130d26020830189612d26565b6130df6040830188612bf5565b6130ec6060830187612c1f565b6130f96080830186612c1f565b61310660a0830185612c1f565b61311360c0830184612c1f565b98975050505050505050565b60006020820190506131346000830184612c1f565b92915050565b600067ffffffffffffffff82111561315557613154612e2b565b5b602082029050602081019050919050565b600080fd5b600061317e6131798461313a565b612e8b565b905080838252602082019050602084028301858111156131a1576131a0613166565b5b835b818110156131ca57806131b68882612ba7565b8452602084019350506020810190506131a3565b5050509392505050565b600082601f8301126131e9576131e8612e21565b5b81356131f984826020860161316b565b91505092915050565b60006020828403121561321857613217612b7c565b5b600082013567ffffffffffffffff81111561323657613235612b81565b5b613242848285016131d4565b91505092915050565b60006080820190506132606000830187612bf5565b61326d6020830186612bf5565b61327a6040830185612bf5565b6132876060830184612c1f565b95945050505050565b61329981613027565b81146132a457600080fd5b50565b6000813590506132b681613290565b92915050565b6000602082840312156132d2576132d1612b7c565b5b60006132e0848285016132a7565b91505092915050565b60008060408385031215613300576132ff612b7c565b5b600061330e85828601612ba7565b925050602061331f85828601612ba7565b9150509250929050565b600060e08201905061333e600083018a612c1f565b81810360208301526133508189612c85565b905061335f6040830188612c1f565b81810360608301526133718187612c85565b905081810360808301526133858186612c85565b905061339460a0830185612c1f565b6133a160c0830184612bf5565b98975050505050505050565b600080600080608085870312156133c7576133c6612b7c565b5b600085013567ffffffffffffffff8111156133e5576133e4612b81565b5b6133f187828801612f28565b945050602061340287828801612ba7565b935050604085013567ffffffffffffffff81111561342357613422612b81565b5b61342f87828801612f28565b925050606085013567ffffffffffffffff8111156134505761344f612b81565b5b61345c87828801612f28565b91505092959194509250565b6000806040838503121561347f5761347e612b7c565b5b600083013567ffffffffffffffff81111561349d5761349c612b81565b5b6134a985828601612f28565b92505060206134ba85828601612ba7565b9150509250929050565b60006020820190506134d96000830184613039565b92915050565b7f4f6e6c792061646d696e2063616e20706572666f726d2074686973206163746960008201527f6f6e000000000000000000000000000000000000000000000000000000000000602082015250565b600061353b602283612c39565b9150613546826134df565b604082019050919050565b6000602082019050818103600083015261356a8161352e565b9050919050565b7f456c656374696f6e206d75737420626520656e64656420666972737400000000600082015250565b60006135a7601c83612c39565b91506135b282613571565b602082019050919050565b600060208201905081810360008301526135d68161359a565b9050919050565b7f526573756c7420616c7265616479206465636c61726564000000000000000000600082015250565b6000613613601783612c39565b915061361e826135dd565b602082019050919050565b6000602082019050818103600083015261364281613606565b9050919050565b7f4e487b7100000000000000000000000000000000000000000000000000000000600052601160045260246000fd5b600061368382612b86565b91507fffffffffffffffffffffffffffffffffffffffffffffffffffffffffffffffff82036136b5576136b4613649565b5b600182019050919050565b7f4e6f2076616c69642077696e6e657220666f756e640000000000000000000000600082015250565b60006136f6601583612c39565b9150613701826136c0565b602082019050919050565b60006020820190508181036000830152613725816136e9565b9050919050565b60006060820190506137416000830186612c1f565b61374e6020830185612c1f565b61375b6040830184612c1f565b949350505050565b7f43616e6e6f7420636c65617220636f6e74657374616e7473207768696c65206560008201527f6c656374696f6e20697320616374697665000000000000000000000000000000602082015250565b60006137bf603183612c39565b91506137ca82613763565b604082019050919050565b600060208201905081810360008301526137ee816137b2565b9050919050565b7f4e487b7100000000000000000000000000000000000000000000000000000000600052602260045260246000fd5b6000600282049050600182168061383c57607f821691505b60208210810361384f5761384e6137f5565b5b50919050565b7f526567697374726174696f6e207068617365206973206e6f7420616374697665600082015250565b600061388b602083612c39565b915061389682613855565b602082019050919050565b600060208201905081810360008301526138ba8161387e565b9050919050565b7f434e49432063616e6e6f7420626520656d707479000000000000000000000000600082015250565b60006138f7601483612c39565b9150613902826138c1565b602082019050919050565b60006020820190508181036000830152613926816138ea565b9050919050565b600081905092915050565b600061394382612c2e565b61394d818561392d565b935061395d818560208601612c4a565b80840191505092915050565b60006139758284613938565b915081905092915050565b7f566f74657220616c726561647920726567697374657265640000000000000000600082015250565b60006139b6601883612c39565b91506139c182613980565b602082019050919050565b600060208201905081810360008301526139e5816139a9565b9050919050565b7f526567697374726174696f6e20616c72656164792070656e64696e6700000000600082015250565b6000613a22601c83612c39565b9150613a2d826139ec565b602082019050919050565b60006020820190508181036000830152613a5181613a15565b9050919050565b7f57616c6c6574206164647265737320616c72656164792072656769737465726560008201527f6400000000000000000000000000000000000000000000000000000000000000602082015250565b6000613ab4602183612c39565b9150613abf82613a58565b604082019050919050565b60006020820190508181036000830152613ae381613aa7565b9050919050565b60008190508160005260206000209050919050565b60006020601f8301049050919050565b600082821b905092915050565b600060088302613b4c7fffffffffffffffffffffffffffffffffffffffffffffffffffffffffffffffff82613b0f565b613b568683613b0f565b95508019841693508086168417925050509392505050565b6000819050919050565b6000613b93613b8e613b8984612b86565b613b6e565b612b86565b9050919050565b6000819050919050565b613bad83613b78565b613bc1613bb982613b9a565b848454613b1c565b825550505050565b600090565b613bd6613bc9565b613be1818484613ba4565b505050565b5b81811015613c0557613bfa600082613bce565b600181019050613be7565b5050565b601f821115613c4a57613c1b81613aea565b613c2484613aff565b81016020851015613c33578190505b613c47613c3f85613aff565b830182613be6565b50505b505050565b600082821c905092915050565b6000613c6d60001984600802613c4f565b1980831691505092915050565b6000613c868383613c5c565b9150826002028217905092915050565b613c9f82612c2e565b67ffffffffffffffff811115613cb857613cb7612e2b565b5b613cc28254613824565b613ccd828285613c09565b600060209050601f831160018114613d005760008415613cee578287015190505b613cf88582613c7a565b865550613d60565b601f198416613d0e86613aea565b60005b82811015613d3657848901518255600182019150602085019450602081019050613d11565b86831015613d535784890151613d4f601f891682613c5c565b8355505b6001600288020188555050505b505050505050565b60006040820190508181036000830152613d828185612c85565b9050613d916020830184613039565b9392505050565b7f4e6f2070656e64696e6720726567697374726174696f6e20666f756e64000000600082015250565b6000613dce601d83612c39565b9150613dd982613d98565b602082019050919050565b60006020820190508181036000830152613dfd81613dc1565b9050919050565b7f436f6e74657374616e74206e6f7420666f756e64000000000000000000000000600082015250565b6000613e3a601483612c39565b9150613e4582613e04565b602082019050919050565b60006020820190508181036000830152613e6981613e2d565b9050919050565b7f496e76616c696420656c656374696f6e20494400000000000000000000000000600082015250565b6000613ea6601383612c39565b9150613eb182613e70565b602082019050919050565b60006020820190508181036000830152613ed581613e99565b9050919050565b7f456c656374696f6e206973206e6f7420696e2043524541544544207374617465600082015250565b6000613f12602083612c39565b9150613f1d82613edc565b602082019050919050565b60006020820190508181036000830152613f4181613f05565b9050919050565b6000604082019050613f5d6000830185612c1f565b613f6a6020830184612c1f565b9392505050565b7f456c656374696f6e206d7573742068617665206174206c65617374203220636f60008201527f6e74657374616e74730000000000000000000000000000000000000000000000602082015250565b6000613fcd602983612c39565b9150613fd882613f71565b604082019050919050565b60006020820190508181036000830152613ffc81613fc0565b9050919050565b7f4e487b7100000000000000000000000000000000000000000000000000000000600052603260045260246000fd5b7f496e76616c696420636f6e74657374616e740000000000000000000000000000600082015250565b6000614068601283612c39565b915061407382614032565b602082019050919050565b600060208201905081810360008301526140978161405b565b9050919050565b7f456c656374696f6e206973206e6f742061637469766500000000000000000000600082015250565b60006140d4601683612c39565b91506140df8261409e565b602082019050919050565b60006020820190508181036000830152614103816140c7565b9050919050565b600060408201905061411f6000830185612c1f565b81810360208301526141318184612c85565b90509392505050565b7f496e646578206f7574206f6620626f756e647300000000000000000000000000600082015250565b6000614170601383612c39565b915061417b8261413a565b602082019050919050565b6000602082019050818103600083015261419f81614163565b9050919050565b7f566f746572206e6f742072656769737465726564000000000000000000000000600082015250565b60006141dc601483612c39565b91506141e7826141a6565b602082019050919050565b6000602082019050818103600083015261420b816141cf565b9050919050565b7f496e76616c696420766f7465722077616c6c6574000000000000000000000000600082015250565b6000614248601483612c39565b915061425382614212565b602082019050919050565b600060208201905081810360008301526142778161423b565b9050919050565b7f566f7465722068617320616c726561647920766f746564000000000000000000600082015250565b60006142b4601783612c39565b91506142bf8261427e565b602082019050919050565b600060208201905081810360008301526142e3816142a7565b9050919050565b7f436f6e74657374616e74206e6f7420696e2063757272656e7420656c6563746960008201527f6f6e000000000000000000000000000000000000000000000000000000000000602082015250565b6000614346602283612c39565b9150614351826142ea565b604082019050919050565b6000602082019050818103600083015261437581614339565b9050919050565b600060408201905081810360008301526143968185612c85565b90506143a56020830184612c1f565b939250505056fea264697066735822122025251c8e762e0b4151d7553bc4a2e57d78700b2e4ee41e1af1425166bcb770f864736f6c63430008130033",
  "immutableReferences": {},
  "source": "// SPDX-License-Identifier: MIT\npragma solidity ^0.8.0;\n\ncontract VotingSystem {\n    struct Contestant {\n        uint256 id;\n        string name;\n        uint256 age;\n        string cnic;\n        string qualification;\n        uint256 voteCount;\n        bool isRegistered;\n    }\n\n    struct Voter {\n        string cnic;\n        address walletAddress;\n        bool isRegistered;\n        bool hasVoted;\n        bool isApproved;\n        uint256 registrationTime;\n    }\n\n    // Updated Election struct - removed timing, added status\n    enum ElectionStatus { CREATED, ACTIVE, ENDED }\n    \n    struct Election {\n        uint256 id;\n        ElectionStatus status;\n        bool isResultDeclared;\n        uint256 winnerId;\n        uint256 createdTime;\n        uint256 startedTime;\n        uint256 endedTime;\n        mapping(uint256 => bool) contestants;\n    }\n\n    address public admin;\n    uint256 public currentElectionId;\n    uint256 public contestantCount;\n    bool public isRegistrationPhaseActive;\n    \n    mapping(uint256 => Contestant) public contestants;\n    mapping(string => Voter) public voters;\n    mapping(uint256 => Election) public elections;\n    mapping(address => bool) public registeredWallets;\n\n    // Array to keep track of pending voter registrations\n    string[] public pendingVoters;\n    mapping(string => bool) public isPendingVoter;\n\n    event VoterRegistrationSubmitted(string cnic, address walletAddress);\n    event VoterApproved(string cnic, address walletAddress);\n    event ContestantAdded(uint256 id, string name);\n    event ElectionCreated(uint256 id, uint256 createdTime);\n    event ElectionStarted(uint256 id, uint256 startedTime);\n    event ElectionEnded(uint256 id, uint256 endedTime);\n    event VoteCast(string voterCnic, uint256 contestantId);\n    event WinnerDeclared(uint256 electionId, uint256 winnerId, uint256 voteCount);\n    event RegistrationPhaseChanged(bool isActive);\n\n    modifier onlyAdmin() {\n        require(msg.sender == admin, \"Only admin can perform this action\");\n        _;\n    }\n\n    modifier registrationPhaseActive() {\n        require(isRegistrationPhaseActive, \"Registration phase is not active\");\n        _;\n    }\n\n    modifier electionActive(uint256 _electionId) {\n        require(elections[_electionId].status == ElectionStatus.ACTIVE, \"Election is not active\");\n        _;\n    }\n\n    constructor() {\n        admin = msg.sender;\n        currentElectionId = 0;\n        contestantCount = 0;\n    }\n\n    function startRegistrationPhase() public onlyAdmin {\n        isRegistrationPhaseActive = true;\n        emit RegistrationPhaseChanged(true);\n    }\n\n    function stopRegistrationPhase() public onlyAdmin {\n        isRegistrationPhaseActive = false;\n        emit RegistrationPhaseChanged(false);\n    }\n\n    function submitVoterRegistration(string memory _cnic) public registrationPhaseActive {\n        require(bytes(_cnic).length > 0, \"CNIC cannot be empty\");\n        require(!voters[_cnic].isRegistered, \"Voter already registered\");\n        require(!isPendingVoter[_cnic], \"Registration already pending\");\n        require(!registeredWallets[msg.sender], \"Wallet address already registered\");\n\n        // Add to pending voters\n        pendingVoters.push(_cnic);\n        isPendingVoter[_cnic] = true;\n\n        // Create voter record but mark as not approved\n        voters[_cnic] = Voter({\n            cnic: _cnic,\n            walletAddress: msg.sender,\n            isRegistered: false,\n            hasVoted: false,\n            isApproved: false,\n            registrationTime: block.timestamp\n        });\n\n        emit VoterRegistrationSubmitted(_cnic, msg.sender);\n    }\n\n    function approveVoter(string memory _cnic) public onlyAdmin {\n        require(isPendingVoter[_cnic], \"No pending registration found\");\n        require(!voters[_cnic].isRegistered, \"Voter already registered\");\n\n        Voter storage voter = voters[_cnic];\n        voter.isRegistered = true;\n        voter.isApproved = true;\n        registeredWallets[voter.walletAddress] = true;\n\n        // Remove from pending voters\n        isPendingVoter[_cnic] = false;\n\n        emit VoterApproved(_cnic, voter.walletAddress);\n    }\n\n    function rejectVoter(string memory _cnic) public onlyAdmin {\n        require(isPendingVoter[_cnic], \"No pending registration found\");\n\n        // Remove voter record\n        delete voters[_cnic];\n        isPendingVoter[_cnic] = false;\n    }\n\n    function getPendingVotersCount() public view returns (uint256) {\n        return pendingVoters.length;\n    }\n\n    function getPendingVoterAtIndex(uint256 index) public view returns (string memory) {\n        require(index < pendingVoters.length, \"Index out of bounds\");\n        return pendingVoters[index];\n    }\n\n    function getVoterStatus(string memory _cnic) public view returns (\n        bool isRegistered,\n        bool isPending,\n        bool isApproved,\n        uint256 registrationTime\n    ) {\n        Voter memory voter = voters[_cnic];\n        return (\n            voter.isRegistered,\n            isPendingVoter[_cnic],\n            voter.isApproved,\n            voter.registrationTime\n        );\n    }\n\n    function addContestant(\n        string memory _name,\n        uint256 _age,\n        string memory _cnic,\n        string memory _qualification\n    ) public onlyAdmin {\n        contestantCount++;\n        contestants[contestantCount] = Contestant({\n            id: contestantCount,\n            name: _name,\n            age: _age,\n            cnic: _cnic,\n            qualification: _qualification,\n            voteCount: 0,\n            isRegistered: true\n        });\n\n        emit ContestantAdded(contestantCount, _name);\n    }\n\n    function clearContestants() public onlyAdmin {\n        require(currentElectionId == 0 || elections[currentElectionId].status != ElectionStatus.ACTIVE, \"Cannot clear contestants while election is active\");\n        \n        // Clear all contestants\n        for (uint256 i = 1; i <= contestantCount; i++) {\n            delete contestants[i];\n        }\n        contestantCount = 0;\n    }\n\n    // Updated createElection - no timing parameters needed\n    function createElection(uint256[] memory _contestantIds) public onlyAdmin {\n        require(_contestantIds.length >= 2, \"Election must have at least 2 contestants\");\n\n        currentElectionId++;\n        Election storage newElection = elections[currentElectionId];\n        newElection.id = currentElectionId;\n        newElection.status = ElectionStatus.CREATED;\n        newElection.createdTime = block.timestamp;\n\n        for (uint256 i = 0; i < _contestantIds.length; i++) {\n            require(contestants[_contestantIds[i]].isRegistered, \"Invalid contestant\");\n            newElection.contestants[_contestantIds[i]] = true;\n        }\n\n        emit ElectionCreated(currentElectionId, block.timestamp);\n    }\n\n    // New function: Start election manually\n    function startElection(uint256 _electionId) public onlyAdmin {\n        require(_electionId > 0 && _electionId <= currentElectionId, \"Invalid election ID\");\n        Election storage election = elections[_electionId];\n        require(election.status == ElectionStatus.CREATED, \"Election is not in CREATED state\");\n\n        election.status = ElectionStatus.ACTIVE;\n        election.startedTime = block.timestamp;\n\n        // Reset all voter voting status for new election\n        // Note: This is a simplified approach. In production, you might want to track this per election\n        \n        emit ElectionStarted(_electionId, block.timestamp);\n    }\n\n    // New function: End election manually\n    function endElection(uint256 _electionId) public onlyAdmin {\n        require(_electionId > 0 && _electionId <= currentElectionId, \"Invalid election ID\");\n        Election storage election = elections[_electionId];\n        require(election.status == ElectionStatus.ACTIVE, \"Election is not active\");\n\n        election.status = ElectionStatus.ENDED;\n        election.endedTime = block.timestamp;\n\n        emit ElectionEnded(_electionId, block.timestamp);\n    }\n\n    function castVote(string memory _voterCnic, uint256 _contestantId) public electionActive(currentElectionId) {\n        Voter storage voter = voters[_voterCnic];\n        require(voter.isRegistered, \"Voter not registered\");\n        require(voter.walletAddress == msg.sender, \"Invalid voter wallet\");\n        require(!voter.hasVoted, \"Voter has already voted\");\n        require(elections[currentElectionId].contestants[_contestantId], \"Contestant not in current election\");\n\n        voter.hasVoted = true;\n        contestants[_contestantId].voteCount++;\n\n        emit VoteCast(_voterCnic, _contestantId);\n    }\n\n    function getContestantDetails(uint256 _contestantId) public view returns (\n        string memory name,\n        uint256 age,\n        string memory cnic,\n        string memory qualification,\n        uint256 voteCount\n    ) {\n        Contestant storage contestant = contestants[_contestantId];\n        require(contestant.isRegistered, \"Contestant not found\");\n        \n        return (\n            contestant.name,\n            contestant.age,\n            contestant.cnic,\n            contestant.qualification,\n            contestant.voteCount\n        );\n    }\n\n    // Updated getElectionStatus - returns status instead of timing\n    function getElectionStatus(uint256 _electionId) public view returns (\n        ElectionStatus status,\n        uint256 createdTime,\n        uint256 startedTime,\n        uint256 endedTime\n    ) {\n        Election storage election = elections[_electionId];\n        return (\n            election.status,\n            election.createdTime,\n            election.startedTime,\n            election.endedTime\n        );\n    }\n\n    function isContestantInElection(uint256 _electionId, uint256 _contestantId) public view returns (bool) {\n        return elections[_electionId].contestants[_contestantId];\n    }\n\n    // Updated declareWinner - no timing check needed\n    function declareWinner(uint256 _electionId) public onlyAdmin {\n        Election storage election = elections[_electionId];\n        require(election.status == ElectionStatus.ENDED, \"Election must be ended first\");\n        require(!election.isResultDeclared, \"Result already declared\");\n\n        uint256 maxVotes = 0;\n        uint256 winnerId = 0;\n\n        // Find contestant with maximum votes\n        for (uint256 i = 1; i <= contestantCount; i++) {\n            if (election.contestants[i] && contestants[i].voteCount > maxVotes) {\n                maxVotes = contestants[i].voteCount;\n                winnerId = i;\n            }\n        }\n\n        require(winnerId > 0, \"No valid winner found\");\n\n        election.isResultDeclared = true;\n        election.winnerId = winnerId;\n\n        emit WinnerDeclared(_electionId, winnerId, maxVotes);\n    }\n\n    // Updated getElectionResult\n    function getElectionResult(uint256 _electionId) public view returns (\n        bool isResultDeclared,\n        uint256 winnerId,\n        string memory winnerName,\n        uint256 winnerVotes,\n        ElectionStatus status,\n        uint256 createdTime,\n        uint256 startedTime,\n        uint256 endedTime\n    ) {\n        Election storage election = elections[_electionId];\n        \n        if (election.isResultDeclared) {\n            Contestant storage winner = contestants[election.winnerId];\n            return (\n                true,\n                election.winnerId,\n                winner.name,\n                winner.voteCount,\n                election.status,\n                election.createdTime,\n                election.startedTime,\n                election.endedTime\n            );\n        }\n        \n        return (\n            false,\n            0,\n            \"\",\n            0,\n            election.status,\n            election.createdTime,\n            election.startedTime,\n            election.endedTime\n        );\n    }\n} ",
  "sourcePath": "D:\\Block Vote\\contracts\\contracts\\VotingSystem.sol",
  "compiler": {
    "name": "solc",
    "version": "0.8.19+commit.7dd6d404.Emscripten.clang"
  },
  "schemaVersion": "3.4.16",
  "updatedAt": "2025-07-02T01:12:30.272Z",
  "networkType": "ethereum",
  "devdoc": {
    "kind": "dev",
    "methods": {},
    "version": 1
  },
  "userdoc": {
    "kind": "user",
    "methods": {},
    "version": 1
  }
}